:020000040800F2
:10000000800D0020C1020008C11C00082D1A000844
:10001000151C00085D1800084F24000800000000AF
:10002000000000000000000000000000551E000855
:100030006118000800000000351D0008691F000855
:10004000DB020008DB020008DB020008DB0200081C
:10005000DB020008DB020008DB020008DB0200080C
:10006000DB020008DB020008DB020008DB020008FC
:10007000DB020008DB020008DB020008DB020008EC
:10008000DB020008DB020008DB020008DB020008DC
:10009000DB020008DB020008DB020008DB020008CC
:1000A000DB020008DB020008DB020008DB020008BC
:1000B000DB020008DB020008CD1F0008DB0200089D
:1000C000DB020008DB020008DB020008DB0200089C
:1000D000DB02000871220008DB020008DB020008D6
:1000E000DB020008DB020008DB020008DB0200087C
:1000F000DB020008DB020008DB020008DB0200086C
:10010000DB020008DB020008DB020008DB0200085B
:10011000DB020008DB020008DB020008DB0200084B
:10012000DB020008DB020008DB020008DB0200083B
:1001300000F002F800F0B4F80AA090E8000C824445
:100140008344AAF10107DA4501D100F0A9F8AFF222
:10015000090EBAE80F0013F0010F18BFFB1A43F0A5
:100160000103184784260000A426000010F8013B74
:100170000A4413F0030408BF10F8014B1D1108BF17
:1001800010F8015B641E05D010F8016B641E01F8C5
:10019000016BF9D1002D15D010F8014B03F00C03C1
:1001A0000C2BA1EB04040ABF10F8013BA4EB831451
:1001B000A4EB032405F1010314F8016B5B1E01F8A5
:1001C000016BF9D5914238BF10F8013BD1D370478C
:1001D0000023002400250026103A28BF78C1FBD850
:1001E000520728BF30C148BF0B6070476E2900F02E
:1001F0003B81702900F07D82662902F087826529A3
:1002000002F08482672902F081826129AFF30080C5
:1002100003681B0A28BF41F08001692900F0E880CB
:10022000642900F0E580752900F0E2806F2900F074
:100230000A82782900F04982E92900F0A581E429A1
:1002400000F0A281F52900F09F81EF2900F00782DC
:10025000F82900F048820368DB0928BF41F08001DB
:10026000632900F0CA85732900F0CF85E32900F0E7
:10027000DA85F32900F0DF85002070471FB500F014
:100280002BFE04000020002102F02AFA401C6060CE
:100290000020002102F00EFAE0601FBD10B510BD75
:1002A00000F0EDFD1146FFF7E9FF02F07DF900F0E7
:1002B000C5FE03B4FFF7F2FF03BC00F00DFF000022
:1002C0000948804709480047FEE7FEE7FEE7FEE7EA
:1002D000FEE7FEE7FEE7FEE7FEE7FEE70448054926
:1002E000054A064B704700006D1F000831010008E9
:1002F00080070020800D0020800900208009002058
:100300001CB50C46064B7B4469460090204600F025
:10031000C4F804460020694600F0D2F820461CBD0F
:10032000B701000070477047704770B50446856993
:100330000068C10601D5302600E02026C00707D09E
:1003400070BDD4E9012130469047206A401C2062EC
:100350006D1EF6D570BD70B5044685690078C0077E
:1003600007D170BDD4E9012120209047206A401CAC
:1003700020626D1EF6D570BD09684A0501D540B2F0
:100380007047C905FCD500B2704709684A0501D518
:10039000C0B27047C905FCD580B2704770B50C4635
:1003A0000546012A05D02878800600D5EA69002391
:1003B00002E0012305E05B1C934202D2E05C0028CE
:1003C000F9D1A869E618C01AA861286A18442862F9
:1003D0002846FFF7AAFF04E0D5E9012114F8010B34
:1003E0009047B442F8D32846FFF7B5FF70BD000030
:1003F0002DE9F0410646002410687529314616A5FE
:1004000010D0FFF7B9FF002802DA404213A507E039
:1004100031688A0701D512A502E0490704D511A564
:10042000012401E0FFF7B1FF00210A2206F12407B1
:1004300009E0B0FBF2FCB0FBF2F302FB1C00303031
:1004400078541846491C0028F3D123462A463046E2
:10045000BDE8F04100F061BA000000002D0000008E
:100460002B0000002000000011680268006A53059C
:1004700001D508700AE0D30501D5088006E013060F
:1004800003D5C217C1E9000200E0086001207047EF
:1004900001694A1C02610878704700B58FB0CDE948
:1004A00001310021059105497944CDE90310114638
:1004B000684600F029F90FB000BD0000E5FFFFFF1E
:1004C0000A6802F8010B0A60704700002DE9FF5F1F
:1004D00015468A460446DFF8AC80F8440027D8E980
:1004E00000103E46CDE9001010E03AF816106A46BA
:1004F00002A800F0A4FC411C07D02178890603D58E
:10050000E269391891420DD80744761C207880069C
:1005100002D5E069B84205DDAE42E6DB3AF81600E6
:100520000028E2D1A069C01BA0612046FFF7FDFEB4
:10053000D8E90010CDE90010002017E03AF81810B3
:100540006A4602A800F07BFCB0F1FF3F81460BD069
:1005500000250DF1080B05E0D4E901211BF8050089
:1005600090476D1C4D45F7D308F10100B04280461D
:10057000E4DB206A384420622046FFF7ECFEBDE849
:10058000FF9F0000322200002DE9F0418046D21D7D
:1005900022F007020025D2E90002F52915A614D0A1
:1005A000011E72F1000106DA0023D0EB030063EBB9
:1005B000020211A608E0D8F800108B0701D50FA69B
:1005C00002E0490701D50EA601251146002408F1D5
:1005D000240704E000F05CF930323A55641C50EA1C
:1005E0000102F7D12B46324621464046BDE8F04194
:1005F00000F093B9000000002D0000002B00000067
:100600002000000030B4002100F1240408E002F0D2
:100610000705D208303542EA4372DB086554491CAD
:1006200052EA0305F3D10468002310A2250707D579
:10063000A40600D421B1C46901230DA2641EC461C3
:1006400030BC00F06AB910B5044621461068FFF7C7
:100650009CFE02462046BDE810400023D2E7D21D92
:1006600022F00701D1E90023CCE7000000000000E0
:1006700030000000F0B40D460188090502D5214C78
:100680007C4402E01F4C7C440E34002100F124061F
:1006900008E002F00F071209E75D42EA03721B0946
:1006A0007754491C52EA0307F3D10278002312075A
:1006B00004D5702D06D009B1022311342246F0BCB6
:1006C00000F02BB901231034F8E770B504460D464D
:1006D00021461068FFF759FE024629462046BDE82C
:1006E00070400023C6E7D21D22F00703D3E90023A0
:1006F000C0E70368126843F0200303600823C36166
:100700000023B7E7942000002DE9F05F89460446F6
:100710004FF0000ADFF874B1FB44C0F820A0204677
:10072000E1688847002874D0252806D0D4E9012143
:100730009047206A401C2062F1E700265F46204671
:10074000E16888472028054607DB312D05D2781956
:1007500010F8200C08B10643F1E7B00701D526F0E8
:100760000406C4F81CA00027C4F818A02A2D09D03C
:10077000284601F0A4FE38B304EB8708303DC8F8E2
:10078000185019E059F8041B204604EB87029161C8
:10079000E1688847012F054618D1E069002820DA72
:1007A00026F020061DE0D8F8180000EB800005EBCD
:1007B00040003038C8F818002046E16888470546F0
:1007C00001F07DFE0028EED1012F0AD02E2D08D198
:1007D0002046E16888477F1C0546022F46F0200628
:1007E000C4DBA069002803DA404246F00106A0619C
:1007F000F00701D026F010066C2D0BD0682D09D023
:100800004C2D39D06A2D35D0742D35D07A2D33D07A
:1008100016E038E0E1682F4620468847B842054692
:1008200009D16C2F26D04FF48060E1680643204642
:100830008847054604E06C2F1AD04FF480700643B9
:100840000DB3A5F14100192802D8203546F4006601
:100850004A462946204626604E46FFF7C7FC80B12F
:1008600001280BD0F61D26F0070000F1080956E715
:100870004020E4E78020D8E70020D6E706F104090D
:100880004DE7284652E7206ABDE8F09F242000008B
:1008900030B5B0F10A024FEA900E71F100034EEA52
:1008A000817EB0EB0E0061EB91014FEA101E4EEA23
:1008B000017E10EB0E0041EB11114FEA102E4EEAB3
:1008C000016E10EB0E0041EB11214FEA104E4EEA83
:1008D000014E10EB0E0041EB1141401841F10001B7
:1008E0004FEAD00040EA41704FEAD10110EB800599
:1008F0004FEA810444EA907444EB01046D1944EB1F
:100900000404521BA3414FF0000348BF0A3200D534
:1009100030BD401C41F1000130BD2DE9F0470D46CE
:1009200099469246044600F124080168880604D5D9
:10093000E06921F01001216000E00120A84201DD02
:10094000471B00E00027A1697A1902EB0900081A89
:10095000A0612078C00602D42046FFF7E6FC0026FE
:1009600008E0D4E901211AF806009047206A401CEB
:10097000761C20624E45F4DB2078C0060AD520465E
:10098000FFF7D3FC06E0D4E9012130209047206A2C
:10099000401C2062381EA7F10107F4DC07E0D4E90F
:1009A000012118F805009047206A401C2062281E8B
:1009B000A5F10105F3DC2046FFF7CDFC2078000609
:1009C00002D50220BDE8F0870120FBE770472DE942
:1009D000FF4F0C461E464FF0FF378BB0D2E90001A7
:1009E000DDF860800A908A46C1F30A5505B93D4694
:1009F000002108464FF00000BAF1000F00F440005B
:100A000005DA00EB80004FF4400101EA50004FEAA4
:100A10009059B9F1010F00DDB9460A9850EA4A0031
:100A20000ED044F61050A5F2FF3545432F14B8F10F
:100A3000000F1ED07542291E1EDDC9F100021CE008
:100A4000B8F1010F4FF0000001D0302103E0F24374
:100A500005E02154401CB042FBDB3046002200215F
:100A600021540B99C1F80880C1E900200FB0BDE8FE
:100A7000F08FBD1B6D1CDEE74A4600DA694206A80E
:100A800000F06EFA06AB93E8070003AB83E80700BB
:100A900050460A9900F027FB8DE80700A0F50050AA
:100AA0001F3800900398002D09DD42F21F014A46CD
:100AB000084403A90390684600F086FD08E0A0F50D
:100AC00000504A461F3803A90390684600F090FD85
:100AD0008DE807000004000C03D04FF0FF30410800
:100AE00000E01046B8F1000F03D000220092154636
:100AF0001EE0751E05D4FFF7CBFE303262556D1E29
:100B0000F9D5B3460122084302D000227F1C04E03D
:100B10002078302801D100227F1E002A099786D034
:100B20001DE0112D07DAFFF7B3FE303262556D1C60
:100B300050EA0102F5D1084302D00098C8B10EE096
:100B40000021681E05E0235C625C63542254401E51
:100B5000491C8142F7DBAB46A81B401E09900020D0
:100B600004F80B000B98099AC0F80880C0E9002B24
:100B70007CE711264FF0000859E72DE9F04F884631
:100B80000446D21D22F0070191B0D1E90001CDE960
:100B90000A0101F080FC02460B98C00F01D02D2005
:100BA00007E02068810701D52B2002E0202101EA1F
:100BB000C000032A099001D0072A05DB03464146FD
:100BC000204600F08DF90BE12078800601D5E06920
:100BD00000E00620B8F1650F814606D0B8F1660F37
:100BE00018D0B8F1670F70D131E00020B9F1110FC2
:100BF000009001DB112301E009F101030AAA01A918
:100C00000CA8FFF7E4FEDDE90C70002609F10105F0
:100C1000834647E001204B4600904FF000470AAA68
:100C200001A90CA8FFF7D3FEDDE90DB00C995D46D4
:100C3000002610B909F101000D18B9EB050003D425
:100C4000C0F1FF3609F10105A5EB09002BE0B9F170
:100C5000010F01DA4FF001090020B9F1110F0090E6
:100C6000484601DD112300E003460AAA01A90CA8A9
:100C7000FFF7ADFEDDE90C704D4600268346207877
:100C800000070AD4AB4500DA5D4601A8012D04DD5A
:100C9000411911F8011C302907D04F4502DA17F12C
:100CA000040F04DA012082460FE06D1EEEE7002FEC
:100CB00002DCED1B3E4403E0781CA84200DD7D1CF5
:100CC000B81B00F1010A4FF000472078000703D459
:100CD000AA4501DB4FF0FF3A0021B7F1004F0DF1BB
:100CE00043088DF8431024D002202B23002F01DA73
:100CF0007F422D230A21021EA0F1010000DC5FB11A
:100D000097FBF1FC97FBF1F201FB1C7C17460CF101
:100D1000300C08F801CDEEE7A8F10100037021883E
:100D2000090501D5452100E06521A0F1010800F881
:100D3000011C09980FA9A1EB0807FF1D00B10120B4
:100D4000411901EBEA70A1693844081A401EA061FC
:100D50002078C00602D42046FFF7E7FA099828B1A8
:100D6000D4E901219047206A401C20622078C00607
:100D700022D52046FFF7D9FA1EE0002E04DBB3454A
:100D800002DD01A8805D00E03020D4E90121904718
:100D9000206A401C2062761CAAF101005FEA000A6A
:100DA0000AD100F099F8C0680168405CD4E90121DB
:100DB0009047206A401C2062281EA5F10105DCDC5A
:100DC00007E0D4E9012118F8010B9047206A401C84
:100DD0002062381EA7F10107F3DC2046FFF7BBFABB
:100DE000032011B043E610B5436913B1AFF300809F
:100DF00001E0FFF7D3FA012010BD127800F12401C1
:100E00000A7000224A700122EDE711684FF0FF32AC
:100E1000E9E710B5436913B1AFF3008001E0FFF7D4
:100E200055FB012010BD128800F1240182840022AC
:100E3000C2840122EDE711684FF0FF32E9E770B597
:100E400016460C46054600F03FF8036893F801018A
:100E5000012806D0FF2C0FD8185D68B101202C7036
:100E600070BDD3F807013246214603F2071303444D
:100E70002846BDE8704018474FF0FF3070BD7546FA
:100E800000F0E6F8AE4605006946534620F007003C
:100E9000854618B020B5FFF721FABDE820404FF095
:100EA00000064FF000074FF000084FF0000B21F054
:100EB0000701AC46ACE8C009ACE8C009ACE8C00921
:100EC000ACE8C0098D46704710B500F005F8001D6C
:100ED00010BD00BF0D180000004870473C070020FF
:100EE0002DE9F0411F46044603260168072A01F454
:100EF000006004DB08B116A505E016A503E008B103
:100F000015A500E015A521F010002060A069C01E05
:100F1000A0610FB1401EA0612046FFF706FA4FB155
:100F2000D4E9012138469047206A401C2062C01C49
:100F3000206206E0206AFAE7D4E9012115F8010BE6
:100F40009047761EF8D22046FFF705FABDE8F081FB
:100F50004E414E006E616E00494E4600696E66005D
:100F60002DE9F047814616468AB0334878440DC8CB
:100F70008DE80D0030487844801C03AC0DC884E82F
:100F80000D0041F69B300844372190FBF1F290FBB5
:100F9000F1F5A5F1800501FB12041B3C02D564426A
:100FA000012000E00020DFF890A080460027FA44EE
:100FB000AAF1BE0A0DE0E00709D03246684607EB09
:100FC00047010AEB810100F013FB8DE80700641074
:100FD0007F1C002CEFD1184F7F44AC3F18E0E8078E
:100FE00014D007EB04100DF1180A90E80E008AE8FF
:100FF0000E00C068F04201D198190890324606A947
:1010000003A800F0F5FA03AB83E807006D10641C39
:10101000002DE4D132466946B8F1000F03A802D092
:1010200000F0D2FA01E000F0E3FAC9E90001C9F8E2
:1010300008200AB0BDE8F0876018000010B504462B
:10104000AFF300802046BDE81040FFF732B9000042
:10105000004870471C0700204FF0013C50F8042B5B
:1010600051F8043B9A4221D1A2EB0C03934313EABB
:10107000CC1317D150F8042B51F8043B9A4215D1E8
:10108000A2EB0C03934313EACC130BD150F8042BBF
:1010900051F8043B9A4209D1A2EB0C03934313EAA3
:1010A000CC13DBD04FF00000704700BFD01A01BA5C
:1010B000B1FA81F101F0180122FA01F0CB40C1F13F
:1010C0002001DBB2C0B2C01A2CFA01F3D11A91434D
:1010D00011EAC311E6D1704701491820ABBEFEE703
:1010E0002600020070475FEA400C08BF91F0000F35
:1010F0004FEA8C234FEAC12243EA51514FEA1C5078
:1011000018BF00F5F0404FEA300018BF41F0004131
:101110005FEA6C5C00F02980BCF1FF3F08BF40F043
:1011200080407047130C06BF12044FF0100C4FF0B4
:10113000000C130E04BF12020CF1080C130F04BFB5
:1011400012010CF1040C930F04BF92000CF1020C7D
:10115000D30F04BF52000CF1010C11464FF00002F6
:10116000A0F11F00A0EB0C00704711F0004F08BF6A
:10117000704731F000413FF4D5AF0B0C06BF0904B6
:101180004FF0100C4FF0000C0B0E04BF09020CF1D5
:10119000080C0B0F04BF09010CF1040C8B0F04BFEA
:1011A00089000CF1020CCB0F04BF49000CF1010CBB
:1011B000CCF12003A0EB0C0022FA03F302FA0CF2AC
:1011C00041EA030100F10100704720F07F4C80EA02
:1011D000030023F07F47ACEB070303F57C5300F0DB
:1011E000004003F1FF032DE980494FEA154B09B494
:1011F0004FEA144325EA0B4E24EA03480FF2042673
:1012000006EB132749083E785FEA320203FB0667C4
:10121000C7F5000707FB06F64FEA54374FEAD646F4
:1012200006F1020607FB066CCCF1005C4FEA1C4796
:101230002CEA074C07FB06F40CFB06F504EB1546FD
:101240004FEA961634BF00204FF000404FEAD137E6
:1012500006FB07FC4FEA1C4C0CFB0BF7D21B03FBF5
:101260000CF761EB07010CFB0EF7B0EB074072EBDC
:1012700017420CFB08F734BFA2EB0742B2EB074260
:1012800061EB17414FEA0C444FEA910706FB07FC5C
:101290004FEA1C4C0CFB0BF7B0EBC74072EB57321C
:1012A00003FB0CF734BFA2EBC742B2EBC74261EBC2
:1012B00057310CFB0EF7B0EBC70072EB57720CFB0B
:1012C00008F734BFA2EBC702B2EBC70261EB57715C
:1012D000039F4FEA816141EA921104EBCC044FEA8B
:1012E000D1374FEA826206FB07FC42EA90124FEACE
:1012F00080604FEA1C4C0CFB0BF7D21B03FB0CF776
:1013000061EB07010CFB0EF7B0EB074072EB1742E5
:101310000CFB08F734BFA2EB0742B2EB074261EBCC
:1013200017414FEA8C554FEA910704EB9C2406FBCA
:1013300007FC4FEA1C4C0CFB0BF7B0EBC74072EB01
:10134000573203FB0CF734BFA2EBC742B2EBC742E4
:1013500061EB57310CFB0EF7B0EBC70072EB577225
:101360000CFB08F734BFA2EBC702B2EBC70261EB7C
:10137000577115EB4C254FEA816141EA92114FEA12
:1013800082624FEAD13742EA901206FB07FC44F131
:1013900000044FEA80604FEA1C4C0CFB0BF7D21B99
:1013A00003FB0CF761EB07010CFB0EF7B0EB0740FA
:1013B00072EB17420CFB08F734BFA2EB0742B2EB0B
:1013C000074261EB174115EB1C154FEA813141EAE9
:1013D00092414FEA823242EA90424FEA80304FEA2D
:1013E0000C7644F1000448EA03434EEA0B484FF000
:1013F000000EB2EB080C71EB030724BF62463946BE
:101400004EEB0E0E4FF0000B0018524149414BEBD2
:101410000B0BB2EB080C71EB03077BF1000B24BF45
:10142000624639464EEB0E0E4FF0000B001852414B
:1014300049414BEB0B0BB2EB080C71EB03077BF153
:10144000000B24BF624639464EEB0E0E51EA0207EE
:1014500018BF46F0010616EB0E7655F1000254F166
:10146000000103D5BDE88901BDE80088BDE8890118
:10147000BDE80048B619524141EB0101A3F1010357
:10148000704780807F7E7D7C7B7A797877767675F1
:101490007473727171706F6E6E6D6C6C6B6A6A6969
:1014A0006868676666656464636362616160605F03
:1014B0005F5E5E5D5D5C5C5B5B5A5A59595858577C
:1014C00057565655555554545353525252515150E4
:1014D00050504F4F4F4E4E4D4D4D4C4C4C4B4B4B37
:1014E0004A4A4A494949484848474747474646467D
:1014F00045454544444444434343434242424241B8
:101500004141002B26D4770021D01CB54FEA370784
:1015100003B44FF010004FF010014FF000000FBC6B
:10152000BDE810400BF1010BBBF1010F08BF5FEAF2
:10153000170722BF12F1010211F101014FF0004122
:1015400043F1000300F0004043EA00007047F9D384
:101550005708DAE746EA064613F1400F4FEA164607
:101560001FDD13F1200FDFBF16430A460021203391
:101570005B42C8D0C3F1200746EA064602FA07F7E5
:101580004FEA164646EA0706C3F1200722FA03F29D
:1015900001FA07F721FA03F14FF0000342EA0702CC
:1015A000B1E746EA020646EA06464FEA164646EA2A
:1015B0000106BCBF46EA0646360C4FF000034FF06A
:1015C00000024FF000019EE72DE9C048934630B479
:1015D00091E8380007C831EA400C48BF34EA430CB0
:1015E00003D5FFF7F2FDFFF78CFFF0BCBDE80088E4
:1015F0002DE9C048934630B491E8380007C810F090
:10160000804F08BF13F0804F03D100F005F8FFF7BB
:1016100078FFF0BCBDE8008820F07F4780EA030037
:1016200023F07F4C07EB0C03A3F57C5300F0004044
:10163000A3F1FE0392F0000F00F0B38095F0000FCD
:1016400000F077802DE901494FEA11404FEA144636
:1016500021EA004800FB06FC24EA064708FB06F6E0
:1016600007FB08F800FB07F718EB06484CEB164C95
:101670004FEA124B18EB07484FEA15464CEB174060
:1016800022EA0B4E0BFB06FC25EA06470EFB06F68C
:1016900007FB0EFE0BFB07F71EEB064E4CEB164C42
:1016A0004FF000061EEB074E4CEB174B18EB0B08E8
:1016B00040F1000018EB0E0B58EB000840F1000061
:1016C0008F1A4FF000013CBFC943661B14BFB5EB36
:1016D000040C00213CBFC943F61B4FEA17444EEAF5
:1016E0008E0E27EA04454FEA1C4704FB07622CEAEA
:1016F000074C05FB07F70CFB05F604FB0CFC16EB8F
:10170000074642EB174216EB0C4642EB1C421BEB22
:10171000060658EB0202414146EA9E0601D5BDE8A5
:101720000189B619524141EB0101A3F10103BDE862
:1017300001894FEA14454FEA114724EA054621EA98
:10174000074C05FB07F406FB07F70CFB06F105FB4E
:101750000CFC11EB074144EB17444FEA124711EB25
:101760000C4144EB1C4422EA074C05FB07F206FB44
:1017700007F70CFB06F605FB0CFC16EB074642EBE5
:10178000174216EB0C4642EB1C456A1854F1000157
:1017900048BF7047B619524141EB0101A3F1010363
:1017A000704795F0000F37D04FEA11424FEA1447C7
:1017B00021EA024624EA074C02FB07F106FB07F781
:1017C0000CFB06F402FB0CFC14EB074441EB174145
:1017D0004FEA154714EB0C4441EB1C4125EA074C3A
:1017E00002FB07F506FB07F70CFB06F602FB0CFCF9
:1017F00016EB074645EB174516EB0C4645EB1C422E
:10180000121951F1000148BF7047B619524141EB1E
:101810000101A3F1010370474FEA14454FEA114754
:1018200024EA054621EA074C05FB07F106FB07F70A
:101830000CFB06F24FF0000605FB0CFC12EB074216
:1018400041EB174112EB0C4251EB1C4148BF704772
:10185000921841EB0101A3F10103704700BFFEE7BD
:1018600070472DE9F04102460025002600200023A4
:101870000024002791F803C00CF00F0591F803C075
:101880000CF0100CBCF1000F03D091F802C04CEA30
:10189000050591F800C0BCF1000F31D0146800209C
:1018A0002BE04FF0010C0CFA00F3B1F800C00CEA89
:1018B00003069E4220D183004FF00F0C0CFA03F771
:1018C000BC4305FA03FC4CEA040491F803C0BCF1E4
:1018D000280F06D14FF0010C0CFA00FCC2F814C01E
:1018E0000AE091F803C0BCF1480F05D14FF0010C9C
:1018F0000CFA00FCC2F810C0401C0828D1D31460B8
:10190000B1F800C0BCF1FF0F34DD546800202EE0B8
:1019100000F1080C4FF0010808FA0CF3B1F800C010
:101920000CEA03069E4221D183004FF00F0C0CFA03
:1019300003F7BC4305FA03FC4CEA040491F803C026
:10194000BCF1280F05D100F1080C08FA0CF8C2F818
:10195000148091F803C0BCF1480F07D100F1080CC6
:101960004FF0010808FA0CF8C2F81080401C082853
:10197000CED35460BDE8F081F0B50A4600230024C0
:101980000021002500F00046B6F1004F02D11D4EA7
:10199000F16901E01B4E7168C0F3034583B200F4A6
:1019A0004016B6F5401F08D121F07061154E7668DB
:1019B00026F07066134F7E6012E000F48016B6F5D4
:1019C000801F06D1032606FA05F4A14341F0706199
:1019D00006E0460D360103FA06F6B14341F07061A8
:1019E00022B1460D360103FA06F6314300F00046F7
:1019F000B6F1004F02D1034EF16101E0014E71607A
:101A0000F0BD0000000001400246002093680B403A
:101A10000BB1012000E00020704741617047016177
:101A200070470AB1016100E04161704700BFFEE705
:101A300000B589B00121112000F08EF901210220AA
:101A400000F07AF901212048FFF796FF18208DF861
:101A500023004FF40070ADF8200003208DF8220021
:101A600008A91A48FFF7FDFE4FF400711748FFF769
:101A7000D4FF0020ADF81A00ADF816001920ADF81B
:101A800018004C20ADF8140005A9114800F09EFB89
:101A90000220ADF80C006020ADF804000120ADF884
:101AA000060001A90A4800F033FB0821084800F0AD
:101AB0007AFB1921064800F083FB0121044800F05D
:101AC00006FB09B000BD0000000C1A000010014028
:101AD0000004004070B504460D46012C08D11420C6
:101AE0000D490880284600F039FD19200A49088070
:101AF00044B9192008490880284600F02FFD142019
:101B000005490880022C05D1142003490880284685
:101B100000F024FD70BD00004004004008B5012124
:101B2000102000F019F948208DF803004FF4C05040
:101B3000ADF8000003208DF8020069460148FFF768
:101B400090FE08BD0010014010B54FF4006116482A
:101B5000FFF75AFF04464FF480511348FFF754FF34
:101B60000440FCB90A2000F0D3FC4FF400610E4899
:101B7000FFF74AFF04464FF480510B48FFF744FF3C
:101B800004407CB94FF400610748FFF73DFF08B9F6
:101B9000022010BD4FF480510348FFF735FF08B90C
:101BA0000320F6E70020F4E7001001401CB50121F6
:101BB000102000F0D1F80121042000F0CDF8102011
:101BC0008DF807004FF4B060ADF8040003208DF8E5
:101BD000060010208DF803000002ADF8000003207D
:101BE0008DF8020001A90948FFF73BFE6946084845
:101BF000FFF737FE4FF480510548FFF710FF4FF411
:101C0000B0610248FFF70BFF1CBD0000001001404F
:101C10000008014000BFFEE700B587B0012144F293
:101C2000040000F099F818208DF81B004FF40070A4
:101C3000ADF8180001208DF81A0006A91E48FFF71C
:101C400010FE04208DF81B000002ADF818000120E2
:101C50008DF81A0006A91848FFF703FE4FF4E1308B
:101C600002900020ADF814000C20ADF81200002006
:101C7000ADF81000ADF80E00ADF80C0002A90F4849
:101C800000F070FB25208DF8040001208DF807007E
:101C900002208DF805008DF8060001A800F012F86A
:101CA000012240F22551054800F037FB012103488D
:101CB00000F0F0FA07B000BD000801400038014014
:101CC0007047000070B5002100230F22C47804B3D0
:101CD000154C246804F4E064C4F5E064210AC1F101
:101CE0000403CA40447804FA03F184781440214381
:101CF00009010E4C0678A155047804F01F05012453
:101D0000AC4005786D11AD0005F1E025C5F8004146
:101D100009E0047804F01F050124AC40044D067866
:101D2000761145F8264070BD0CED00E000E400E0BF
:101D300080E100E07047000029B1064AD269024301
:101D4000044BDA6104E0034AD2698243014BDA6151
:101D5000704700000010024029B1064A9269024310
:101D6000044B9A6104E0034A92698243014B9A61F1
:101D7000704700000010024030B50021002200240E
:101D800000232D4D6D6805F00C0121B1042905D00B
:101D9000082923D105E0294D056022E0284D056082
:101DA0001FE0254D6D6805F47012234D6D6805F434
:101DB0008034022505EB92421CB9224D5543056043
:101DC0000BE01D4D6D6805F400351DB11E4D5543EA
:101DD000056002E01A4D5543056002E0174D0560AD
:101DE00000BF00BF144D6D6805F0F0010909174DE3
:101DF0006B5C0568DD4045600F4D6D6805F4E06182
:101E0000090A124D6B5C4568DD4085600A4D6D68BE
:101E100005F46051C90A0D4D6B5C4568DD40C56035
:101E2000054D6D6805F44041890B094D6B5CC56833
:101E3000B5FBF3F5056130BD0010024000127A00D9
:101E4000001BB70000093D00808D5B00E00300200F
:101E5000F0030020704710B500F002F810BD00003C
:101E60000CB50020019000903348006840F48030A9
:101E70003149086000BF3048006800F4003000902D
:101E80000198401C0190009818B90198B0F5A06F16
:101E9000F1D12948006800F4003010B10120009011
:101EA00001E0002000900098012843D123480068F9
:101EB00040F01000214908600846006820F0030047
:101EC00008600846006840F0020008601A48406850
:101ED000194948600846406848600846406840F430
:101EE000806048600846406820F47C1048600846DE
:101EF000406840F4881048600846006840F08070F0
:101F0000086000BF0C48006800F000700028F9D09D
:101F10000948406820F003000749486008464068C7
:101F200040F00200486000BF0348406800F00C0029
:101F30000828F9D10CBD000000100240002002402A
:101F4000042808D14FF0E021096941F004014FF065
:101F5000E022116107E04FF0E021096921F004015E
:101F60004FF0E022116170477047000010B5134830
:101F7000006840F0010011490860084640681049B7
:101F800008400E494860084600680E4908400B4961
:101F900008600846006820F4802008600846406811
:101FA00020F4FE0048604FF41F008860FFF753FFE5
:101FB0004FF000600449086010BD000000100240AE
:101FC0000000FFF8FFFFF6FE08ED00E010B501216C
:101FD000324800F08BF810B331480078C8B10024C3
:101FE00008E0304830F814202FA1314800F031FAD1
:101FF000601C84B22F480078401EA042F1DC2D48BE
:102000000078801E274931F810202BA1284800F0C5
:1020100020FA0020274908702149087000BF1021CC
:102020001E4800F063F8F8B125480068E8B11C4884
:10203000007858B1194800F056F81E490A78097816
:10204000491C1C4B1970174921F812000120144932
:1020500008700221114800F099F800210F4800F0A3
:10206000B2F800201749087013E00C4800F03BF864
:1020700010490A780978491C0E4B1970094921F852
:1020800012000021054800F081F80021034800F00B
:102090009AF81121014800F017F810BD000800401F
:1020A000FA030020FC03002025642C20000000001F
:1020B00000380140F903002025640D0A0D0A0000D4
:1020C00024812142F8030020CA430282704721B1D3
:1020D000028842F00102028004E002884FF6FE739B
:1020E0001A40028070470146888C704730B502461E
:1020F000002000230024158A05EA0103958905EADA
:10210000010413B10CB1012000E0002030BD00003B
:1021100070B5002200230024058C4EF6FF76354072
:102120000584038C8488828B48F6FF752A404FF61D
:10213000FF452A400D884FF6FF7606EA05252A431B
:102140004DF6FF752B400D8906EA05352B434D886A
:1021500006EA05352B430B4DA84202D00A4DA84292
:1021600008D14BF6FF752C408D894FF6FF7606EAB5
:1021700085152C4384808283CD88A0F84050038449
:1021800070BD0000002C0140003401400A460021CF
:10219000018C4DF6FF7319404FF6FF7303EA0233CB
:1021A0001943018470470A460021818B4FF2FF7367
:1021B00019404FF6FF7303EA0223194381837047E6
:1021C000A0F8401070478184704700000022028808
:1021D0001D4B98420ED01D4B98420BD0B0F1804F52
:1021E00008D01B4B984205D01A4B984202D01A4B8C
:1021F000984204D14FF68F731A404B881A43174BFD
:10220000984207D0164B984204D04FF6FF431A402D
:10221000CB881A4302808B8883850B8803850A4B01
:1022200098420BD0094B984208D00E4B984205D0EB
:102230000D4B984202D00D4B984201D10B7A038688
:102240000123838270470000002C014000340140CC
:102250000004004000080040000C00400010004056
:10226000001400400040014000440140004801408B
:1022700010B540F22551064800F025F838B1044861
:1022800000F0DCF804462146014800F0DCF810BDFF
:102290000038014021B1828942F40052828104E079
:1022A00082894DF6FF731A408281704702460020F2
:1022B000B1F5007F00D100BF13880B400BB10120A6
:1022C00000E00020704770B502460024002300257E
:1022D000002040F66A16B14200D100BFC1F342159A
:1022E00001F01F03012606FA03F3012D02D196899E
:1022F000334006E0022D02D1168A334001E0968A6F
:1023000033400C12012606FA04F41688344013B147
:102310000CB1012000E0002070BDF0B503460024A0
:1023200000260025002040F66A17B94200D100BF00
:102330001846C1F3421401F01F06012707FA06F5FB
:10234000012C01D10C3004E0022C01D1103000E04E
:1023500014301AB107682F43076002E00768AF43E3
:102360000760F0BD2DE9F04786B005460E46002413
:10237000A24600BFA1460027B08900B100BF2F468A
:102380002C8A4CF6FF700440F08804432C82AC8900
:102390004EF6F3100440B088318908437189084330
:1023A0000443AC81AC8A4FF6FF400440B08904433B
:1023B000AC8201A8FFF7E0FC1F48874202D1DDF89C
:1023C00010A001E0DDF80CA0A88900F4004040B1A5
:1023D0000AEBCA0000EB0A1031684900B0FBF1F8C3
:1023E00007E00AEBCA0000EB0A1031688900B0FB75
:1023F000F1F86420B8FBF0F004012009642101FB2E
:102400001089A88900F4004040B1322000EBC900D7
:10241000B0FBF1F000F00700044308E0322000EBCD
:1024200009106421B0FBF1F000F00F0004432C818F
:1024300006B0BDE8F08700000038014001468888FA
:10244000C0F308007047C1F308028280704700BFE4
:10245000FEE70FB430B5CBB0054601AC50A80090F4
:1024600001A8009A4F99FDF74BFF002000900BE068
:1024700014F8011B2846FFF7E6FF00BF402128465D
:10248000FFF714FF0028F9D020780028F0D14BB0D6
:1024900030BC5DF814FB490050EAC12018BF04208D
:1024A0004A0D18BF40F0010040F2FF72B2EB515FDD
:1024B00008BF40F00200012808BF052070473038EF
:1024C0000A2801D2012070470020704710B56FF034
:1024D0000400FFF735FD0A4800680A49B0FBF1F037
:1024E000094908700846007800EB4001C1EBC010B4
:1024F0004FF6FF7101EAC0000449088010BD0000DA
:10250000CC03002000127A00F4030020F603002020
:102510000146114A12884A434FF0E0235A610022D3
:102520009A611A46126942F001021A6100BF4FF027
:10253000E022106900F001021AB100F48032002A92
:10254000F5D04FF0E022126922F001024FF0E023B3
:102550001A6100229A617047F60300200146114A71
:1025600012784A434FF0E0235A6100229A611A46DA
:10257000126942F001021A6100BF4FF0E0221069B7
:1025800000F001021AB100F48032002AF5D04FF0B9
:10259000E022126922F001024FF0E0231A610022CA
:1025A0009A617047F403002000254FF4A06101F008
:1025B00007023A4B18684FF6FF031840384B0343A5
:1025C00043EA0220354B186000BFFFF77FFFFFF79B
:1025D00023FBFFF7A3FAFFF7E9FAFFF729FA5CE01C
:1025E000FFF7B2FA0546002D57D0022D02D0032D79
:1025F00052D12BE000240EE02A4830F814100120BC
:10260000FFF768FA274A601C32F810100020FFF725
:1026100061FAA01CC4B2F22CEEDB2248B0F8E4113F
:102620000120FFF757FA00211F48FFF750FD19203E
:102630001D494031088001211B48FFF748FD002259
:102640004FF480611948FFF7ECF925E000240EE013
:10265000174830F814100120FFF73CFA144A601CA8
:1026600032F810100020FFF735FAA01CC4B2F22C8B
:10267000EEDB0F48B0F8E4110120FFF72BFA002140
:102680000948FFF724FD192007494031088001213E
:102690000548FFF71CFD00BF00BFA1E70CED00E0FF
:1026A0000000FA05E601002000040040001001408F
:1026B0000000002010B500290AD00878002807D0B3
:1026C00005487844FEF7C8FC002801D0002010BD62
:1026D0000248784410BD0000460100003E010000A1
:1026E00010B500290AD00878002807D0054878449A
:1026F000FEF7B2FC002801D0002010BD024878444B
:1027000010BD0000360100002E010000FEF735BAB2
:10271000000000000000000030313233343536371D
:102720003839414243444546403058003031323315
:102730003435363738396162636465664030780015
:10274000040000080000000000000002000100007A
:102750001000000002400000000000A00000000087
:1027600005400000000000C8000000000C40000010
:102770000000409C00000000194000000020BCBE8A
:102780000000000034400000BFC91B8E00000004A0
:10279000B5400000504BCFD06607E2CF01000000EB
:1027A0006C4100003E8251AADFEEA7340100000018
:1027B000D9420000DCB5A0E23A301F97FFFFFFFFCF
:1027C000B4450000FD25A0C8E9A3C14FFFFFFFFFEE
:1027D000FF3F00000000008000000000FF3F0000FD
:1027E00000000080000000003429000800000020E4
:1027F000FC0300006C010008F02B0008FC03002023
:1028000084090000D00100081C0000004300000003
:10281000F8FFFFFF0C0000000E0000000F0000009A
:102820002E0000001001000043000000F8FFFFFF31
:1028300000404040404040404040414141414140D3
:102840004040404040404040404040404040404088
:102850004005020202020202020202020202020217
:10286000022020202020202020202002020202021C
:102870000202909090909090101010101010101074
:102880001010101010101010101010100202020280
:1028900002028888888888880808080808080808C4
:1028A00008080808080808080808080802020202C0
:1028B00040000000000000000000000000000000D8
:1028C0000000000000000000000000000000000008
:1028D00000000000000000000000000000000000F8
:1028E00000000000000000000000000000000000E8
:1028F00000000000000000000000000000000000D8
:1029000000000000000000000000000000000000C7
:1029100000000000000000000000000000000000B7
:1029200000000000000000000000000000000000A7
:102930000000000010162221F60F5902EC0140029F
:102940002006410221063F0205023E0812410832DC
:102950003F0830060B024002040C124308123E28C6
:1029600012400C300442021F08300640020E023DA5
:102970002C212412082012053010040502422C32AA
:102980003C44230B024C21442128123D24100441D5
:1029900002034812073012062C320B0C123D48126B
:1029A0003510323D18216412064021502120320892
:1029B00038123D30123E34523F64214021602114D0
:1029C000215030083E022F0213020928300442022F
:1029D00002C8700440020D20123C1C100442020088
:1029E0005821301004130234D8300440020CB8329D
:1029F0003814320A1C323B18120B9012088C200734
:102A00000F026202DC017412415421782128323E07
:102A1000C42510520CFC21F42120213C1004040296
:102A2000468410068B02B201412C3406460217027E
:102A300025205206B84530252812434C523D4041CE
:102A4000D8140608025602EA9016043821801208AB
:102A50001421DC5202F816035C210821101006062E
:102A6000025902F06410044006229C525938257421
:102A700010065402040645EC213C24075E020421A2
:102A80002F104C300606025A060704258830065CD3
:102A9000060A023914100808022902210223041030
:102AA000063F062302220210043D062504300423BB
:102AB000023C0810082502240228021D2610041ECC
:102AC0000226083006240220022710121B101004D0
:102AD0001F022A3A612021181224101225186104BD
:102AE00010042402443432023814044302011E123A
:102AF000016C140441063CA621401644761225546C
:102B0000122320163986213C7227401012390629DB
:102B10000246063E02FD014802FA012B021A781213
:102B20001A20121E78121C281221341006B5027EBB
:102B3000012198216C10042C0218A03226AC21101F
:102B400021DA1227D641E241681642C02118211627
:102B500029601A43203221FA4102298812222829A9
:102B60007421CE2120122310493C1A0A242908215D
:102B7000243A2C481A45A02960214428054602FF22
:102B800001AC21821223E01220A2256049383204D0
:102B90008412240412221A562078322ABA1C0422E3
:102BA00002476A031004FF01026016085441C01670
:102BB000237E1227B4259C2102121F641643A821EC
:102BC000C8140447061D78162E765008190200A274
:102BD0004A040001600901020304060708090C61A8
:102BE0001019173208140004000000000000000053
:04000005080002C12C
:00000001FF
